:020000040800F2
:10000000A8090020B5010008E54700087D44000864
:10001000E1470008ED2200086D52000800000000D2
:100020000000000000000000000000000949000876
:10003000912400080000000019480008CF4900087A
:10004000CF010008CF010008CF010008CF01000850
:10005000CF010008CF010008CF010008CF01000840
:10006000CF010008CF010008CF010008CF01000830
:10007000CF010008CF010008F12200080123000889
:10008000CF010008CF010008CF010008CF01000810
:10009000CF010008CF010008CF010008CF01000800
:1000A000CF010008CF010008CF010008CF010008F0
:1000B000CF010008CF010008414A0008CF01000825
:1000C000CF010008CF010008CF010008CF010008D0
:1000D000CF0100085D520008CF010008CF010008E1
:1000E000CF010008CF010008CF01000800F002F89E
:1000F00000F050F80AA090E8000C82448344AAF172
:100100000107DA4501D100F045F8AFF2090EBAE86F
:100110000F0013F0010F18BFFB1A43F0010318473B
:100120002C5F00004C5F0000103A24BF78C878C1F3
:10013000FAD8520724BF30C830C144BF04680C60ED
:10014000704700000023002400250026103A28BF35
:1001500078C1FBD8520728BF30C148BF0B60704739
:10016000662905F09486642900F0588000207047C5
:100170001FB500F0E9FE04000020002105F038FB67
:10018000401C60600020002105F01CFBE0601FBDEA
:1001900010B510BD01F09EF91146FFF7E9FF05F01B
:1001A00085F901F0FBFB03B4FFF7F2FF03BC01F09C
:1001B00061FC00000948804709480047FEE7FEE768
:1001C000FEE7FEE7FEE7FEE7FEE7FEE7FEE7FEE707
:1001D00004480549054A064B704700003D4A00089F
:1001E000ED000008A8030020A8090020A8050020B1
:1001F000A80500200FB41CB5074B06AA7B4469462E
:100200000090059800F0D5FB0020694600F0E4FB63
:100210001CBC5DF814FB0000D90700002DE9F0417B
:100220000646002410687529314616A510D0AFF394
:100230000080002802DA404213A507E031688A07EF
:1002400001D512A502E0490704D511A5012401E05A
:10025000AFF3008000210A2206F1240709E0B0FB79
:10026000F2FCB0FBF2F302FB1C003030785418466D
:10027000491C0028F3D123462A463046BDE8F04108
:1002800000F029B9000000002D0000002B00000044
:10029000200000002DE9F0474FF0000A894604468F
:1002A000C0F820A02046E1688847002876D025289D
:1002B00006D0D4E901219047206A401C2062F1E772
:1002C000E168204600258847C4F81CA006460027A0
:1002D000C4F818A02A2E09D0304605F07AF838B3B1
:1002E00004EB8708303EC8F8186019E059F8041B81
:1002F000204604EB87029161E1688847012F06469A
:1003000018D1E069002820DA25F020051DE0D8F892
:10031000180000EB800006EB40003038C8F81800E9
:100320002046E1688847064605F053F80028EED1DC
:10033000012F0AD02E2E08D12046E16888477F1C65
:100340000646022F45F02005C4DBA069002803DA29
:10035000404245F00105A061E80701D025F01005F5
:10036000B6B1A6F14100192802D8203645F400653F
:100370004A463146204625604D46FFF7F1FE58B10A
:10038000012806D0ED1D25F0070000F1080989E7D6
:1003900004E005F1040985E730468AE7206ABDE8F4
:1003A000F08700000FB400B58DB010A9099000913E
:1003B0000B904FF0FF300A9000200C9006487844D4
:1003C0000690064878446A4607900F9909A800F0FD
:1003D0008BFD0DB05DF814FB470B00005F0B0000B8
:1003E00010B5431C02E010F8011B71B18107FAD16E
:1003F0004FF0013202C88C1A8C4314EAC211F9D0B2
:10040000C01A0A0603D0C01E10BDC01A10BD0A04CF
:1004100001D0801E10BD0902FCD0401E10BD10B5D9
:10042000203AC0F00B80B1E81850203AA0E81850EC
:10043000B1E81850A0E81850BFF4F5AF5FEA027CAD
:1004400024BFB1E81850A0E8185044BF18C918C01C
:10045000BDE810405FEA827C24BF51F8043B40F8BD
:10046000043B08BF7047D20728BF31F8023B48BFA2
:1004700011F8012B28BF20F8023B48BF00F8012BE0
:1004800070474FF0000200B5134694469646203957
:1004900022BFA0E80C50A0E80C50B1F12001BFF43D
:1004A000F7AF090728BFA0E80C5048BF0CC05DF8A3
:1004B00004EB890028BF40F8042B08BF704748BFF1
:1004C00020F8022B11F0804F18BF00F8012B704765
:1004D0007047704770472DE9F0470D4699469246A0
:1004E000044600F124080168880604D5E06921F07B
:1004F0001001216000E00120A84201DD471B00E05F
:100500000027A1697A1902EB0900081AA061207876
:10051000C00602D42046AFF30080002608E0D4E9EC
:1005200001211AF806009047206A401C761C2062C0
:100530004E45F4DB2078C0060AD52046AFF3008094
:1005400006E0D4E9012130209047206A401C206257
:10055000381EA7F10107F4DC07E0D4E9012118F8FF
:1005600005009047206A401C2062281EA5F1010565
:10057000F3DC2046AFF300802078000602D502208D
:10058000BDE8F0870120FBE770472DE9FF4F0C46DF
:100590001E464FF0FF378BB0D2E90001DDF86080D6
:1005A0000A908A46C1F30A5505B93D46002108461E
:1005B0004FF00000BAF1000F00F4400005DA00EB44
:1005C00080004FF4400101EA50004FEA9059B9F120
:1005D000010F00DDB9460A9850EA4A000ED044F6F1
:1005E0001050A5F2FF3545432F14B8F1000F1ED06F
:1005F0007542291E1EDDC9F100021CE0B8F1010F91
:100600004FF0000001D0302103E0F24305E0215417
:10061000401CB042FBDB30460022002121540B99E4
:10062000C1F80880C1E900200FB0BDE8F08FBD1B04
:100630006D1CDEE74A4600DA694206A800F0D4FEE7
:1006400006AB93E8070003AB83E8070050460A991E
:1006500001F017FA8DE80700A0F500501F38009050
:100660000398002D0ADD42F21F014A460844002388
:1006700003A90390684601F0C3FC09E0A0F500500F
:100680004A461F38002303A90390684601F0E2FCA4
:100690008DE807000004000C03D04FF0FF30410844
:1006A00000E01046B8F1000F03D00022009215467A
:1006B0001EE0751E05D400F04FFC303262556D1EF1
:1006C000F9D5B3460122084302D000227F1C04E082
:1006D0002078302801D100227F1E002A099784D07B
:1006E0001DE0112D07DA00F037FC303262556D1C29
:1006F00050EA0102F5D1084302D00098C8B10EE0DB
:100700000021681E05E0235C625C63542254401E95
:10071000491C8142F7DBAB46A81B401E0990002014
:1007200004F80B000B98099AC0F80880C0E9002B68
:100730007AE711264FF0000857E72DE9F04F884679
:100740000446D21D22F0070191B0D1E90001CDE9A4
:100750000A0104F08DFD02460B98C00F01D02D2038
:1007600007E02068810701D52B2002E0202101EA63
:10077000C000032A099001D0072A05DB0346414641
:10078000204600F037FC0BE12078800601D5E069B7
:1007900000E00620B8F1650F814606D0B8F1660F7B
:1007A00018D0B8F1670F70D131E00020B9F1110F06
:1007B000009001DB112301E009F101030AAA01A95C
:1007C0000CA8FFF7E2FEDDE90C70002609F1010537
:1007D000834647E001204B4600904FF000470AAAAD
:1007E00001A90CA8FFF7D1FEDDE90DB00C995D461B
:1007F000002610B909F101000D18B9EB050003D46A
:10080000C0F1FF3609F10105A5EB09002BE0B9F1B4
:10081000010F01DA4FF001090020B9F1110F00902A
:10082000484601DD112300E003460AAA01A90CA8ED
:10083000FFF7ABFEDDE90C704D46002683462078BD
:1008400000070AD4AB4500DA5D4601A8012D04DD9E
:10085000411911F8011C302907D04F4502DA17F170
:10086000040F04DA012082460FE06D1EEEE7002F30
:1008700002DCED1B3E4403E0781CA84200DD7D1C39
:10088000B81B00F1010A4FF000472078000703D49D
:10089000AA4501DB4FF0FF3A0021B7F1004F0DF1FF
:1008A00043088DF8431024D002202B23002F01DAB7
:1008B0007F422D230A21021EA0F1010000DC5FB15E
:1008C00097FBF1FC97FBF1F201FB1C7C17460CF146
:1008D000300C08F801CDEEE7A8F101000370218883
:1008E000090501D5452100E06521A0F1010800F8C6
:1008F000011C09980FA9A1EB0807FF1D00B10120F9
:10090000411901EBEA70A1693844081A401EA06140
:100910002078C00602D42046AFF30080099828B1A1
:10092000D4E901219047206A401C20622078C0064B
:1009300022D52046AFF300801EE0002E04DBB34535
:1009400002DD01A8805D00E03020D4E9012190475C
:10095000206A401C2062761CAAF101005FEA000AAE
:100960000AD100F0F1FAC0680168405CD4E90121C5
:100970009047206A401C2062281EA5F10105DCDC9E
:1009800007E0D4E9012118F8010B9047206A401CC8
:100990002062381EA7F10107F3DC2046AFF3008088
:1009A000032011B041E6000001694A1C0261087889
:1009B000704700B58FB0CDE901310021059105499F
:1009C0007944CDE9031011466846FFF763FC0FB088
:1009D00000BD0000E5FFFFFF0A6802F8010B0A6096
:1009E000704700002DE9FF4F06468BB00878FF28BE
:1009F00006D0491C2D2805D000244FF0000908E03E
:100A000000200CE00124F8E709EB8903491C00EB06
:100A100043090878FF28F7D114B1C9F100008146D5
:100A2000107800252C46AA4629462D2801D02B28CF
:100A300004D1521C2D2813D0002082468B461078FA
:100A4000FF280FD04FF0000C0A21521CA5FB0178A3
:100A500004FB018105FB0C11C5194BEB0104EEE70A
:100A60000120EAE7002108464FF00000BAF1000F2C
:100A700002D000EB80004008C0F38157012F01DD58
:100A80004FF0FF370E9955EA040009EB01080BD02F
:100A90004FF0020918F5FA7F16DA4FEACA70002FF4
:100AA000706008DD012007E04FEACA70C6E900B0B7
:100AB0000FB0BDE8F08F0020306000F049FAC0F8B8
:100AC00000901821084616E0B8F5FA7F18DD002FCF
:100AD00002DAF748784401E0F6487844D0E900109B
:100AE000C6E9001040EACA70706000F031FAC0F840
:100AF0000090142108460FB0BDE8F04F05F0C4B9CE
:100B0000002108464FF00000B8F10001099002DA18
:100B1000C7F1000200E03A4601DAC8F1000106A878
:100B200000F062FC06AB93E8070003AB83E8070024
:100B300044F23E005BEA04010090584604D144F2BE
:100B40001E012C465D460091210C0904014306D18B
:100B50000099240444EA15442D041039009104F04E
:100B60007F41014306D10099240244EA15642D0215
:100B70000839009104F07041014306D10099240125
:100B800044EA15742D01091F009104F0404101430E
:100B900006D10099A40044EA9574AD00891E009125
:100BA00004F00041084304D100986D196441401ECF
:100BB00000904FF001033A466846B8F1000FCDE9C6
:100BC000014503A902DD01F05AFA01E001F02DFA16
:100BD000BAF1000F04460D4601D084F00044002114
:100BE00008464FF00000099940F2FF77484010F0A6
:100BF0000C0F07D124F00040284303D0C4F30A505F
:100C0000B84212D100F0A4F9C0F80090C4F30A5021
:100C1000B8420AD1A8487844D0E90010C6E90010CB
:100C200004F000410843706042E7C6E900543FE722
:100C30002DE9FF4F1F464FF0000A4FF0FF384546A1
:100C400091B0D7E90146CDF83CA000F07DF9C0682D
:100C50000168405C1090B96912986D1C8847396A28
:100C6000814688470028F6D1B9F1FF3F0AD0002E0F
:100C700024F4D06411DDB9F12B0F08D0B9F12D0F98
:100C80000BD102E0404615B013E744F48064B96923
:100C900012986D1C8847761E8146600504A901D50F
:100CA0002D2000E02B20002E01F1010B0DF130086A
:100CB0008DF810003FDDB9F1690F08D0B9F1490F87
:100CC00005D0B9F16E0F02D0B9F14E0F1CD13B46E1
:100CD00001A8009580E85002DDE912126FF00200D1
:100CE00005F03BF9C11CCED10EE0B96912986D1C1C
:100CF000884781461398761E44F4007405600F9867
:100D0000401C002E0F9016DDB9F1300FEDD0B9F177
:100D1000780F02D0B9F1580F0DD10F9801280AD1E0
:100D20003B46CDE90054DDE91212001F029605F0A2
:100D300012F9C11CA7D1109989453ED144F0800415
:100D400006E01399681CAAF1010A44F400740860D3
:100D5000B9696D1C1298761E884730288146F0D0FC
:100D60002BE01099894505D1200603D4761E44F066
:100D7000800418E0484604F02CFB08B3761E0DF101
:100D800023018B4544F4007408D2A9F130000BF81C
:100D9000010B200607D5AAF1010003E0200602D4CA
:100DA0000AF101008246A00502D51399681C08606B
:100DB000B96912986D1C88478146002ED1DC53E03A
:100DC000002E51DDB9F1650F02D0B9F1450F4BD1BD
:100DD000A00549D5B9696D1C1298761E24F440749B
:100DE0008847002E81460CDD2B2804D0B9F12D0F49
:100DF00007D144F48074B96912986D1C8847761E37
:100E00008146E00501D52D2100E02B2108F8011BCA
:100E1000CDF8008021E0761E0DF13901884544F4BB
:100E200000740CD2A9F1300010F0FF0088F8000027
:100E300002D10099884509D908F1010806E0E005CA
:100E400001D51E4801E042F20F708246B96912983E
:100E50006D1C8847814613980560002E04DD4846C6
:100E600004F0B7FA0028D6D1F96912988847FF2014
:100E700053468BF8000088F8000000200A900B9081
:100E800004AA0CA90AA8FFF7ADFDA00502D46FF0D3
:100E90000100F8E614F0240F12D0E0071CD13868E6
:100EA000DDE90A12031D3B600068C0E9001213E08F
:100EB0009C5500008E55000052540000F1D8FFFFF1
:100EC0000AA9684604F014FAE00705D13868009AC8
:100ED000011D3960006802602846D4E602681144AA
:100EE0001378016018467047D16005497944516113
:100EF00004497944116200211161114600F0BAB829
:100F0000EDFFFFFFED000000426842B1016811F8FB
:100F1000013B23B1521EC0E900121846704701215F
:100F2000C160881E704742685AB1C368016843B9FE
:100F300083688B4205D0491E521CC0E90012002074
:100F400070474FF0FF30704700487047680300203B
:100F5000004870474803002030B5B0F10A024FEA5C
:100F6000900E71F100034EEA817EB0EB0E0061EB52
:100F700091014FEA101E4EEA017E10EB0E0041EB8C
:100F800011114FEA102E4EEA016E10EB0E0041EBEC
:100F900011214FEA104E4EEA014E10EB0E0041EBCC
:100FA0001141401841F100014FEAD00040EA417080
:100FB0004FEAD10110EB80054FEA810444EA9074B6
:100FC00044EB01046D1944EB0404521BA3414FF0A0
:100FD000000348BF0A3200D530BD401C41F100017A
:100FE00030BD10B5044600F09BFA0068005D00F0CB
:100FF000010010BD2DE9F0411F460446032601689B
:10100000072A01F4006004DB08B116A505E016A567
:1010100003E008B115A500E015A521F0100020603F
:10102000A069C01EA0610FB1401EA0612046AFF3B1
:1010300000804FB1D4E9012138469047206A401C16
:101040002062C01C206206E0206AFAE7D4E9012190
:1010500015F8010B9047761EF8D22046AFF30080BA
:10106000BDE8F0814E414E006E616E00494E460073
:10107000696E66002DE9F34F4FF0000A0C465646A4
:101080008DB001200C9001F10C000B9062690B985F
:1010900001219047051E2DD0252D2CD0216A88478F
:1010A000C0B162690B9801219047216A88470028E6
:1010B000F7D16269411E0B98904700E0761CA16948
:1010C0000D988847216A88470028F7D1E1690D9873
:1010D0008847DBE7A1690D988847A842074601D1F8
:1010E000761CD3E7E1690D9888477F1C02D1BAF1DD
:1010F000000F6FD06CE162690B9800273D463946BE
:1011000090472A2804D162690B9801219047012554
:10111000DFF8D08262690B9801219047A0F130017D
:101120000A290AD24745E5DC07EB870100EB4107B6
:10113000303FDFD445F01005ECE7E90601D46FF04D
:1011400000476C280AD04C2814D0682815D06A288B
:101150000DD074281CD07A281AD01DE062690B9833
:10116000012190476C2802D045F0040514E045F0B9
:1011700002050DE045F020050AE062690B980121A7
:101180009047682802D045F0080505E045F4006561
:1011900062690B9801219047C4E9015765283DD049
:1011A00019DC58287AD00CDC452837D004DC2528F7
:1011B00026D041289ED131E046282FD0472899D10A
:1011C0002CE05B2877D0612828D063287CD0642865
:1011D00023D15AE0F7E06F2848D008DC66281DD0FC
:1011E00067281BD0692821D06E2816D127E07028E7
:1011F00045D0732868D0752847D078280DD14DE0A8
:10120000A1690D988847252805463FF469AFE16933
:101210000D9888476D1C3FF46AAFD9E00D992346BD
:101220006A466FF0010004F094FEC6E045F040000D
:1012300023464FF000026060A80736D43EE0E8077E
:101240007FF447AF2068011D21600068290501D5A2
:1012500006701BE7290701D5068017E7A90703D504
:10126000F117C0E9006111E706600FE745F04000A3
:1012700023464FF008026060A80716D41EE040F62F
:101280000E0125EA0100606016E045F040002346AB
:101290004FF00A026060A80707D40FE045F0400055
:1012A0006060A80708D5234610220D996FF0010051
:1012B000AFF3008081E007E0102223460D996FF024
:1012C0000100AFF3008078E04FF0000963284F463B
:1012D000C8464B46CB4602D05B2807D039E0207980
:1012E000C00601D40120A060012732E06269D4F871
:1012F0000CB00B98012190475E2807D14FF00109EF
:1013000049466269D4F80CB00B989047216939B905
:1013100000210A4603AB43F82120491C0829FADBC7
:10132000D8B3216949B308F1010862690B9801211A
:1013300090475D28F4D1B9F1000F09D0002003A92E
:1013400051F82020D24341F82020401C0828F7DB28
:1013500003AB2069002820794FEA40701ED05B461D
:101360002246CDF80080CDE901970D9900286FF055
:10137000010020DAAFF300801FE0C11703AA00EBE1
:10138000D1614B1121F01F0102EB8302411A136856
:101390000120884003431360C7E719E00D992246F6
:1013A00000286FF00100009702DAAFF3008004E03C
:1013B000AFF3008001E0AFF3008000280ADA401CA0
:1013C00006D10C9820B14FF0FF300FB0BDE8F08F80
:1013D0005046FAE7E90701D10AF1010A0644002064
:1013E0000C9053E6CCCCCC0C2DE9F0478146164648
:1013F0008AB0354878440DC88DE80D0032487844ED
:10140000801C03AC0DC884E80D0041F69B300844F5
:10141000372190FBF1F290FBF1F5A5F1800501FB7E
:1014200012041B3C02D56442012000E00020DFF8DA
:1014300098A080460027FA44AAF1BE0A0EE0E00711
:101440000AD03246684607EB470101230AEB8101C7
:1014500000F000FE8DE8070064107F1C002CEED128
:10146000194F7F44AE3F19E0E80715D007EB041091
:101470000DF1180A90E80E008AE80E00C068F042EC
:1014800001D1981908903246012306A903A800F05B
:10149000E1FD03AB83E807006D10641C002DE3D170
:1014A0004FF0010332466946B8F1000F03A802D09D
:1014B00000F0A6FD01E000F0CDFDC9E90001C9F88A
:1014C00008200AB0BDE8F0873C4C00000048704797
:1014D000480300207546FFF7F9FFAE460500694650
:1014E000534620F00700854618B020B5FEF770FE81
:1014F000BDE820404FF000064FF000074FF0000815
:101500004FF0000B21F00701AC46ACE8C009ACE895
:10151000C009ACE8C009ACE8C0098D4670470000BE
:1015200010B5FFF711FD001D10BD00BFC542000042
:1015300010B5FFF70DFD006810BD10B50446FFF7AC
:1015400007FD046010BD00002DE9FF4F1F464FF05E
:101550003C0987B04FF00042DDE9141001F10108A9
:10156000DDF858A002EA4050039000200590834621
:10157000054604460490B969461E08988847AAF1B2
:10158000010A0290BAF1000F3BDD02982E2815D017
:10159000102100F060FA00282EDB4FF0010B0599B6
:1015A000014317D0B9F1000F0BDB4A46C11700F019
:1015B0003FFA05430C43A9F1040905E0012004901A
:1015C0000BE008B145F0010501200590049820B911
:1015D000361D02E0049800B1361FB969089808F179
:1015E00001088847BBF1000FAAF1010A0290C9D097
:1015F0000999C1F80080C5E70298702808D05028E2
:1016000006D0F96908988847BBF1000F14D04FE065
:10161000002002900120BBF1000F049009D0B969AD
:10162000089808F101088847AAF10109B9F1000FEB
:1016300007DCF969089888476FF001000BB0BDE836
:10164000F08F2B2804D02D280CD14FF0FF300490C0
:10165000B969089808F101088847A9F10109B9F1A9
:10166000000FE6DD411CE4D00A2100F0F4F9002867
:10167000DFDB029908F1010801EB810100EB410079
:101680000290B969089888470A2100F0E4F9099A9C
:10169000A9F10109B9F1000FC2F8008001DD0028AD
:1016A000E7DAF969089888470499029800FB01660F
:1016B00055EA040004D004F04041090002D006E0DD
:1016C000039898E0A40044EA9574AD00B61E04F0B7
:1016D0000041080002D16D196441761E159810F082
:1016E000240F03D04FF00B095C4803E04FF02809AA
:1016F0006FF07D008246564507DAAAEB0601894461
:10170000B9F1410F01DD4FF0410901200021A9F19C
:10171000010200F08DF9024628400B4621400843A3
:1017200001D0012100E00021501E029143F1FF3160
:1017300028402140084301D0012000E00020029908
:10174000834651EA0B014FD0002108464FF00000BC
:10175000039900F4400039B100EB80004FF44001E0
:1017600000EBD07001EA60008015012802DD4FF027
:10177000FF3000E013D0401C36D0029860B3BBF1BC
:10178000000F0CD14A460120002100F051F92840F9
:101790002140084301D0012000E00020E0B10120F9
:1017A0004A46002100F044F9034640190A466141C7
:1017B0002D1A8C4111D3B9F1400F09DD159810F0A5
:1017C000240F02D0AAF1340603E0AAF1170600E0C4
:1017D000761C00254FF0004406E05B1E42F1FF320C
:1017E00020EA030521EA0204CAF10100B04206DA48
:1017F0001B49039808430190002000900EE0039AD3
:10180000C4F3D321E80A0A43164940EA44500A4384
:101810003146CDE90002684603F0D0FD159810F07E
:10182000240F0BD01598C00715D13868DDE90012D8
:10183000031D3B600068C0E900120CE002A8694685
:1018400003F056FD1598C00705D13868029A011DAE
:101850003960006802604046F0E6000002FCFFFFCD
:101860000000F07F0000F03F2DE9FF4F92461D463B
:1018700085B04FF00041DDE9124BDDE914727F1EA7
:1018800001EA4B50414940F0FF4940EA010800217C
:1018900022F020004928049102D04E2828D04CE0A4
:1018A0003BA0012607C88DE80700A9690698641CBB
:1018B00088477F1E014606D41DF8060018B121F0A6
:1018C000200181420BD0E96906988847032E34D065
:1018D000082E32D06FF0010009B0BDE8F08F761C01
:1018E000032E01D0082EE0D1601CCAF80000DCE70E
:1018F000A9690698641C88477F1E2AD420F020001E
:10190000412826D1A9690698641C88477F1E20D4E7
:1019100020F020004E281CD1A9690698641C884735
:101920007F1E48F4002849F48009CAF8004001D419
:10193000282806D0E969069888475FEACB7012D05C
:1019400022E0A9690698641C88477F1E01D40028FC
:1019500003DAE96906988847BCE72928F1D1641CB5
:10196000CAF80040E9E71BF0240F07D02868049963
:10197000031D2B600068C0E9001805E02868021DFF
:101980002A600068C0F800902046A5E70000F07FBC
:10199000494E46494E4954590000000010B50446CE
:1019A000AFF300802046BDE81040FEF7FCBB00000E
:1019B0004FF0013C50F8042B51F8043B9A4221D1DE
:1019C000A2EB0C03934313EACC1317D150F8042B6A
:1019D00051F8043B9A4215D1A2EB0C03934313EA4E
:1019E000CC130BD150F8042B51F8043B9A4209D187
:1019F000A2EB0C03934313EACC13DBD04FF00000AF
:101A0000704700BFD01A01BAB1FA81F101F0180194
:101A100022FA01F0CB40C1F12001DBB2C0B2C01A02
:101A20002CFA01F3D11A914311EAC311E6D17047A0
:101A3000B2F120030AD5C2F1200301FA02F120FA23
:101A400003F300FA02F041EA0301704700FA03F1E0
:101A50004FF0000070473A2800D2303820F02002C2
:101A6000412A01D3A2F13700884201D34FF0FF3061
:101A70007047000001491820ABBEFEE726000200B7
:101A800070475FEA400C08BF91F0000F4FEA8C23CB
:101A90004FEAC12243EA51514FEA1C5018BF00F5EA
:101AA000F0404FEA300018BF41F000415FEA6C5C43
:101AB00000F02980BCF1FF3F08BF40F08040704734
:101AC000130C06BF12044FF0100C4FF0000C130E55
:101AD00004BF12020CF1080C130F04BF12010CF129
:101AE000040C930F04BF92000CF1020CD30F04BF3F
:101AF00052000CF1010C11464FF00002A0F11F0042
:101B0000A0EB0C00704711F0004F08BF704731F098
:101B100000413FF4D5AF0B0C06BF09044FF0100C89
:101B20004FF0000C0B0E04BF09020CF1080C0B0F58
:101B300004BF09010CF1040C8B0F04BF89000CF1E8
:101B4000020CCB0F04BF49000CF1010CCCF12003B7
:101B5000A0EB0C0022FA03F302FA0CF241EA0301B3
:101B600000F10100704720F07F4C80EA030023F071
:101B70007F47ACEB070303F57C5300F0004003F113
:101B8000FF032DE980494FEA154B09B44FEA14438E
:101B900025EA0B4E24EA03480FF2042606EB13272E
:101BA00049083E785FEA320203FB0667C7F5000783
:101BB00007FB06F64FEA54374FEAD64606F102060F
:101BC00007FB066CCCF1005C4FEA1C472CEA074C83
:101BD00007FB06F40CFB06F504EB15464FEA9616D8
:101BE00034BF00204FF000404FEAD13706FB07FC1E
:101BF0004FEA1C4C0CFB0BF7D21B03FB0CF761EB01
:101C000007010CFB0EF7B0EB074072EB17420CFB21
:101C100008F734BFA2EB0742B2EB074261EB174172
:101C20004FEA0C444FEA910706FB07FC4FEA1C4CB5
:101C30000CFB0BF7B0EBC74072EB573203FB0CF712
:101C400034BFA2EBC742B2EBC74261EB57310CFB8A
:101C50000EF7B0EBC70072EB57720CFB08F734BFFE
:101C6000A2EBC702B2EBC70261EB5771039F4FEAC9
:101C7000816141EA921104EBCC044FEAD1374FEA7B
:101C8000826206FB07FC42EA90124FEA80604FEA4C
:101C90001C4C0CFB0BF7D21B03FB0CF761EB070191
:101CA0000CFB0EF7B0EB074072EB17420CFB08F78A
:101CB00034BFA2EB0742B2EB074261EB17414FEA98
:101CC0008C554FEA910704EB9C2406FB07FC4FEA76
:101CD0001C4C0CFB0BF7B0EBC74072EB573203FB0D
:101CE0000CF734BFA2EBC742B2EBC74261EB5731EE
:101CF0000CFB0EF7B0EBC70072EB57720CFB08F74A
:101D000034BFA2EBC702B2EBC70261EB577115EB10
:101D10004C254FEA816141EA92114FEA82624FEA13
:101D2000D13742EA901206FB07FC44F100044FEA67
:101D300080604FEA1C4C0CFB0BF7D21B03FB0CF72B
:101D400061EB07010CFB0EF7B0EB074072EB17429B
:101D50000CFB08F734BFA2EB0742B2EB074261EB82
:101D6000174115EB1C154FEA813141EA92414FEAC8
:101D7000823242EA90424FEA80304FEA0C7644F1D8
:101D8000000448EA03434EEA0B484FF0000EB2EB62
:101D9000080C71EB030724BF624639464EEB0E0E6A
:101DA0004FF0000B0018524149414BEB0B0BB2EBCB
:101DB000080C71EB03077BF1000B24BF6246394628
:101DC0004EEB0E0E4FF0000B0018524149414BEB09
:101DD0000B0BB2EB080C71EB03077BF1000B24BF7C
:101DE000624639464EEB0E0E51EA020718BF46F026
:101DF000010616EB0E7655F1000254F1000103D5F1
:101E0000BDE88901BDE80088BDE88901BDE800485A
:101E1000B619524141EB0101A3F1010370478080E3
:101E20007F7E7D7C7B7A7978777676757473727134
:101E300071706F6E6E6D6C6C6B6A6A6968686766EC
:101E400066656464636362616160605F5F5E5E5D7E
:101E50005D5C5C5B5B5A5A595958585757565655F2
:101E600055555454535352525251515050504F4F54
:101E70004F4E4E4D4D4D4C4C4C4B4B4B4A4A4A49A4
:101E800049494848484747474746464645454544E7
:101E9000444444434343434242424241414100009F
:101EA00046EA0646A3F570534FEA164646EA4256FE
:101EB0004FEAD22242EA415210B54FEAD121A3F1B2
:101EC000010300F02FF820F0004000F1020C00F0B8
:101ED000004701EB00501146BCF5006F40EA0700D7
:101EE00000D210BDBAF1000F0AD01CB503B44FF0F8
:101EF00004004FF004014FF000000FBCBDE810409B
:101F00004FF00001BBF1010FB9BF04484FF0FF31A2
:101F10000348002140EA070010BD00BFFFFFEF7F2C
:101F20000000F07F002B9C4630D477002BD01CB5EE
:101F30004FEA370703B44FF010004FF01001BAF129
:101F4000000F06D0BCF1000FDCBF40F0080040F0ED
:101F500008014FF000000FBCBDE810400BF1010B71
:101F6000BBF1010F08BF5FEA170722BF12F10102A0
:101F700011F101014FF0004143F1000300F0004076
:101F800043EA00007047F9D35708D0E746EA06460F
:101F900013F1400F4FEA16461FDD13F1200FDFBF8C
:101FA00016430A46002120335B42BED0C3F120070E
:101FB00046EA064602FA07F74FEA164646EA0706D9
:101FC000C3F1200722FA03F201FA07F721FA03F11D
:101FD0004FF0000342EA0702A7E746EA020646EA94
:101FE00006464FEA164646EA0106BCBF46EA0646E2
:101FF000360C4FF000034FF000024FF0000194E761
:102000002DE9804C9A46934670B491E8380007C891
:1020100031EA400C48BF34EA430C03D5FFF7A3FD77
:10202000FFF780FFF0BCBDE8008C2DE9804C9A469C
:10203000934670B491E8380007C831EA400C48BFB5
:1020400034EA430C03D5FFF78EFDFFF729FFF0BC00
:10205000BDE8008C2DE9804C9A46934670B491E817
:10206000380007C810F0804F08BF13F0804F03D12D
:1020700000F01AF8FFF756FFF0BCBDE8008C2DE920
:10208000804C9A46934670B491E8380007C810F027
:10209000804F08BF13F0804F03D100F005F8FFF721
:1020A000FFFEF0BCBDE8008C20F07F4780EA030013
:1020B00023F07F4C07EB0C03A3F57C5300F00040AA
:1020C000A3F1FE0392F0000F00F0B38095F0000F33
:1020D00000F077802DE901494FEA11404FEA14469C
:1020E00021EA004800FB06FC24EA064708FB06F646
:1020F00007FB08F800FB07F718EB06484CEB164CFB
:102100004FEA124B18EB07484FEA15464CEB1740C5
:1021100022EA0B4E0BFB06FC25EA06470EFB06F6F1
:1021200007FB0EFE0BFB07F71EEB064E4CEB164CA7
:102130004FF000061EEB074E4CEB174B18EB0B084D
:1021400040F1000018EB0E0B58EB000840F10000C6
:102150008F1A4FF000013CBFC943661B14BFB5EB9B
:10216000040C00213CBFC943F61B4FEA17444EEA5A
:102170008E0E27EA04454FEA1C4704FB07622CEA4F
:10218000074C05FB07F70CFB05F604FB0CFC16EBF4
:10219000074642EB174216EB0C4642EB1C421BEB88
:1021A000060658EB0202414146EA9E0601D5BDE80B
:1021B0000189B619524141EB0101A3F10103BDE8C8
:1021C00001894FEA14454FEA114724EA054621EAFE
:1021D000074C05FB07F406FB07F70CFB06F105FBB4
:1021E0000CFC11EB074144EB17444FEA124711EB8B
:1021F0000C4144EB1C4422EA074C05FB07F206FBAA
:1022000007F70CFB06F605FB0CFC16EB074642EB4A
:10221000174216EB0C4642EB1C456A1854F10001BC
:1022200048BF7047B619524141EB0101A3F10103C8
:10223000704795F0000F37D04FEA11424FEA14472C
:1022400021EA024624EA074C02FB07F106FB07F7E6
:102250000CFB06F402FB0CFC14EB074441EB1741AA
:102260004FEA154714EB0C4441EB1C4125EA074C9F
:1022700002FB07F506FB07F70CFB06F602FB0CFC5E
:1022800016EB074645EB174516EB0C4645EB1C4293
:10229000121951F1000148BF7047B619524141EB84
:1022A0000101A3F1010370474FEA14454FEA1147BA
:1022B00024EA054621EA074C05FB07F106FB07F770
:1022C0000CFB06F24FF0000605FB0CFC12EB07427C
:1022D00041EB174112EB0C4251EB1C4148BF7047D8
:1022E000921841EB0101A3F10103704700BFFEE723
:1022F00010B5024800F054F910BD0000040300209E
:1023000010B5024800F04CF910BD0000C0020020DA
:1023100030B590F840500124AC40C56B6C60046847
:1023200063604468102C04D10468A2600468E16012
:1023300003E00468A1600468E26030BDF8B50020E5
:1023400000903948007800B9F8BD0020364908707F
:1023500036480488402C00DB3F2422463449354867
:10236000FEF75DF8002033490855084600784928F3
:102370001DD004DC412828D044283ED11EE050283E
:102380000ED0542839D16A462BA12A48FEF70AF804
:10239000012804D1009803F077FC2A4908602DE059
:1023A000284A103228A12348FDF7FCFF26E0254AE1
:1023B000143228A11F48FDF7F5FF1FE0214A18320B
:1023C00027A11C48FDF7EEFF18E0284A28A119486C
:1023D000FDF7E8FF01280FD129492448006803F0E0
:1023E00091FB0646274903F083FC80F00045284610
:1023F00003F04AFC2449086000E000BF00BF402110
:102400000B48FEF73EF840220949204801F065FDDF
:102410001E48C06B0068006820F004001B49C96BAF
:102420000968086000BF8FE72E0000202C00002004
:10243000D800002018010020545F73706565643A6D
:102440002566000040000020505F73706565643AA7
:1024500025660000495F73706565643A2566000073
:10246000445F73706565643A2566000020000020B3
:10247000415F706F736974696F6E3A256600000082
:102480000000B44300002F456C00002078020020BB
:10249000704772B600BFFEE70146002291F82100A6
:1024A000022808D00420886300BF002081F82000A3
:1024B00000BF012070470868006820F00E000B681C
:1024C00018600868006820F001000B68186091F837
:1024D000403001209840CB6B5860012081F82100EA
:1024E00000BF002081F8200000BF1046E2E7000096
:1024F00070B50446002594F82100022803D004207A
:10250000A063012548E02068006820F00E002168E3
:1025100008602068006820F00100216808601F49F9
:102520002068884201D1012026E01C49143120682E
:10253000884201D110201FE01849283120688842C4
:1025400001D1801518E015493C312068884201D13D
:10255000801411E0114950312068884202D14FF4B3
:10256000803009E00D4964312068884202D14FF47F
:10257000801001E04FF08070084908394860012060
:1025800084F8210000BF002084F8200000BF606BA9
:1025900010B12046616B8847284670BD0800024094
:1025A00070B50446E06B05682068066894F8401032
:1025B000042088402840002846D006F00400002867
:1025C00042D02068006800F0200028B92068006828
:1025D00020F004002168086057492068884201D132
:1025E000042027E0544914312068884201D140205A
:1025F00020E0514928312068884201D1001519E0B6
:102600004D493C312068884202D14FF4804011E0AE
:10261000494950312068884202D14FF4802009E0B6
:10262000454964312068884202D14FF4800001E0BE
:102630004FF08060404908394860E06A00287AD04D
:102640002046E16A884776E094F8401002208840EE
:102650002840A0B306F0020088B32068006800F0AC
:10266000200040B92068006820F00A002168086056
:10267000012084F8210030492068884201D10220DD
:1026800028E02D4914312068884201D1202021E022
:10269000294928312068884201D140151AE026498D
:1026A0003C312068884202D14FF4005012E02249A8
:1026B00050312068884203D14FF400300AE017E01F
:1026C0001D4964312068884202D14FF4001001E0B6
:1026D0004FF0007018490839486000BF002084F8A6
:1026E000200000BFA06A30B32046A16A884722E0DC
:1026F00094F84010082088402840E0B106F0080017
:10270000C8B12068006820F00E002168086094F8C5
:10271000401001208840E16B48600120A06384F8EC
:10272000210000BF002084F8200000BF206B10B102
:102730002046216B884770BD0800024001460022F8
:1027400009B901207047164B0868C01A1423B0FB62
:10275000F3F08000086412480838C863022081F84A
:1027600021000868026843F6F0708243D1E9010352
:102770001843CB6818430B6918434B6918438B699E
:102780001843CB691843024308680260002088633D
:10279000012081F82100002081F8200000BFD1E74E
:1027A000080002402DE9F04104460D4616461F463A
:1027B0004FF0000800BF94F82000012802D1022049
:1027C000BDE8F081012084F8200000BF94F82100CA
:1027D00001282CD1022084F821000020A063206869
:1027E000006820F00100216808603B463246294617
:1027F0002046FFF78DFDE06A30B12068006840F0A8
:102800000E00216808600BE02068006820F00400DA
:10281000216808602068006840F00A0021680860AC
:102820002068006840F001002168086006E000BFF1
:10283000002084F8200000BF4FF002084046BFE7A8
:1028400070B5044600F0A6F906462546681C10B18E
:1028500004480078054400BF00F09CF9801BA842A2
:10286000FAD370BD380000202DE9F8470346002256
:1028700094466EE14FF0010808FA02F4D1F80080A6
:1028800008EA0400A0427DD1DFF8DCA2D1F8048080
:10289000A8EB0A09D0453AD014DCB8F1030F50D0A8
:1028A00009DCB8F1000F31D0B8F1010F1CD0B8F13C
:1028B000020F49D120E0B8F1110F18D0B8F1120F72
:1028C00042D11EE0B9F5881F25D006DCB9F5803F5E
:1028D00020D0B9F5801F37D11AE0B9F5001F18D004
:1028E000B9F5041F30D117E0D1F80CC02DE0D1F8B4
:1028F0000C8008F1040C28E0D1F80C8008F1080CD9
:1029000023E0D1F80C8008F10C0C1EE000BF00BFE2
:1029100000BF00BF00BF00BFD1F80880B8F1000FB2
:1029200002D14FF0040C0BE0D1F80880B8F1010F90
:1029300003D14FF0080C1C6102E04FF0080C5C6101
:1029400003E04FF0000C00E000BF00BFFF2801D8FB
:10295000984601E003F104084646FF2802D84FEAF2
:10296000820803E0A2F108084FEA88084746D6F833
:1029700000804FF00F0909FA07F928EA09080CFA54
:1029800007F900E088E048EA0908C6F80080D1F8B5
:10299000048008F08058B8F1805F7DD100BFDFF877
:1029A000CC81D8F8188048F00108DFF8C091C9F848
:1029B0001880C846D8F8188008F00108CDF80080C3
:1029C00000BF00BF4FEAB9384FEA920958F82950C2
:1029D0004FEA82784FEA18794FF00F0808FA09F8A1
:1029E00025EA0805DFF88881434502D14FF0000849
:1029F00016E0DFF88081434502D14FF001080FE077
:102A0000DFF87481434502D14FF0020808E0DFF897
:102A10006C81434502D14FF0030801E04FF00408F8
:102A20004FEA82794FEA197908FA09F848EA050568
:102A3000DFF84C814FEA920948F82950D1F8048018
:102A400008F48018B8F5801F0AD1DFF83881D8F86B
:102A5000008048EA0008DFF82C91C9F8008009E0FE
:102A6000DFF82081D8F8008028EA0008DFF8149108
:102A7000C9F80080D1F8048008F40018B8F5001FE8
:102A800010D1DFF8008108F10408D8F8008048EA86
:102A90000008DFF8F09000E05AE009F10409C9F8F5
:102AA00000800DE0DFF8DC8008F10408D8F8008031
:102AB00028EA0008DFF8CC9009F10409C9F8008081
:102AC000D1F8048008F40038B8F5003F0ED1DFF8E3
:102AD000B480A8F10408D8F8008048EA0008DFF8BC
:102AE000A490A9F10409C9F800800DE0DFF89480F2
:102AF000A8F10408D8F8008028EA0008DFF88490DC
:102B0000A9F10409C9F80080D1F8048008F48038DC
:102B1000B8F5803F0ED1DFF86C80A8F10808D8F82E
:102B2000008048EA0008DFF85C90A9F10809C9F8BC
:102B300000800DE0DFF84C80A8F10808D8F800808C
:102B400028EA0008DFF83C90A9F10809C9F80080DC
:102B5000521CD1F8008028FA02F8B8F1000F7FF477
:102B600089AEBDE8F8870000000011100010024097
:102B700000080140000C0140001001400014014019
:102B800008000140080401400AB1016101E00B04A2
:102B90000361704701480068704700003000002062
:102BA00003480068034909780844014908607047F0
:102BB000300000203800002010B50848006840F0C0
:102BC000100006490860032000F0A8F80F2000F06C
:102BD00007F800F02BF8002010BD00000020024094
:102BE00070B504460E4800784FF47A71B1FBF0F0EE
:102BF0000C490968B1FBF0F5284600F0FBFB08B171
:102C0000012070BD102C07D200222146501E00F07A
:102C100047F80548046001E00120F2E70020F0E7F2
:102C2000380000203C0000203400002008B500BF20
:102C30001148806940F001000F49886108468069A9
:102C400000F00100009000BF00BF00BF0846C0694F
:102C500040F08050C8610846C06900F08050009084
:102C600000BF00BF00BF0549486820F0E06040F0A9
:102C70000070486000BF08BD001002400000014025
:102C800001460846002809DB00F01F0301229A4094
:102C900043099B0003F1E023C3F8002100BF704704
:102CA0002DE9F05F80460D461646002702F0F4FA43
:102CB000074639462A46334601F00700C0F1070AA5
:102CC000BAF1040F02D94FF0040A01E0C0F1070A7B
:102CD000D14600F1040ABAF1070F02D24FF0000A00
:102CE00001E0A0F1030AD4464FF0010A0AFA09FAFA
:102CF000AAF1010A0AEA020A0AFA0CFA4FF0010BD9
:102D00000BFA0CFBABF1010B0BEA030B4AEA0B04C9
:102D10002146404602F0C8FABDE8F09F00BF00F02F
:102D20000702064B19684FF6FF031940044B0B438B
:102D300043EA0221014B196000BF70470CED00E02F
:102D40000000FA0570B504460D460CB9012070BDAF
:102D50005A48006800F00700A8420ED257480068A1
:102D600020F007002843554908600846006800F035
:102D70000700A84201D00120E9E7207800F0020016
:102D800002281DD1207800F00400042805D14C4809
:102D9000406840F4E0604A494860207800F008004C
:102DA000082805D14648406840F4605044494860CE
:102DB0004348406820F0F000A1680843404948605B
:102DC000207800F0010078B36068012806D13C4803
:102DD000006800F4003090B90120B8E7606802286C
:102DE00006D13748006800F0007040B90120AEE716
:102DF0003348006800F0020008B90120A7E7304816
:102E0000406820F00300616808432D494860FFF7DF
:102E1000C1FE064609E0FFF7BDFE801B41F2883186
:102E2000884202D9032092E707E02548406800F075
:102E30000C006168B0EB810FEDD12048006800F014
:102E40000700A8420ED91D48006820F0070028435B
:102E50001A4908600846006800F00700A84201D03F
:102E6000012074E7207800F00400042807D11448FA
:102E7000406820F4E060E168084311494860207828
:102E800000F00800082808D10D48406820F4605080
:102E9000216940EAC1000A49486000F03FF808494A
:102EA0004968C1F30311074A515CC84006490860EC
:102EB00006480068FFF794FE002048E70020024023
:102EC00000100240A05F00083C00002034000020F9
:102ED00001480068704700003C00002000B5FFF783
:102EE000F7FF04494968C1F30221034A515CC84015
:102EF00000BD000000100240B05F000800B5FFF701
:102F0000E7FF04494968C1F3C221034A515CC84044
:102F100000BD000000100240B05F000870B5002145
:102F20000022002400230020134D696801F00C05E5
:102F3000F5B1042D02D0082D19D101E00F4819E098
:102F40000F4DC1F38346AB5D01F4803555B10A4D99
:102F50006D68C5F340450B4E725D084D5D43B5FB92
:102F6000F2F402E0084D03FB05F4204602E000BF46
:102F7000024800BF00BF70BD0010024000127A007E
:102F80008E5F00089E5F000800093D00F8B504460A
:102F90000CB90120F8BD207800F0010000287AD09B
:102FA000F948406800F00C0004280CD0F64840684E
:102FB00000F00C00082811D1F348406800F480307C
:102FC000B0F5803F0AD1F048006800F400300028D6
:102FD00061D0606800285ED10120DBE700BF606837
:102FE000B0F5803F06D1E848006840F48030E649FB
:102FF000086028E0606858B9E348006820F4803031
:10300000E14908600846006820F4802008601AE062
:103010006068B0F5A02F0BD1DB48006840F4802039
:10302000D94908600846006840F4803008600AE02A
:10303000D548006820F48030D3490860084600680D
:1030400020F48020086000BF606890B1FFF7A2FD07
:10305000054607E0FFF79EFD401BB0F57A7F01D9DA
:10306000032097E7C848006800F400300028F1D03A
:1030700011E0FFF78FFD054607E0FFF78BFD401BD2
:10308000B0F57A7F01D9032084E7BF48006800F4D7
:1030900000300028F1D1207800F00200022857D13A
:1030A000B948406800F00C0050B1B748406800F0E3
:1030B0000C00082818D1B448406800F4803098B952
:1030C000B148006800F0020020B12069012801D059
:1030D00001205FE7AC48006820F0F800616940EA31
:1030E000C100A949086033E02069E8B10120A7497F
:1030F0000860FFF74FFD054606E0FFF74BFD401B5C
:10310000022801D9032045E79F48006800F002002B
:103110000028F2D09C48006820F0F800616940EA7D
:10312000C1009949086013E0002098490860FFF742
:1031300031FD054606E0FFF72DFD401B022801D9B1
:10314000032027E79048006800F002000028F2D131
:10315000207800F0080008282DD1A069B8B101201E
:103160008B490860FFF716FD054606E0FFF712FDE4
:10317000401B022801D903200CE78348406A00F075
:1031800002000028F2D0012001F0AAFB13E0002089
:103190007F490860FFF7FEFC054606E0FFF7FAFCF2
:1031A000401B022801D90320F4E67748406A00F06A
:1031B00002000028F2D1207800F00400042873D126
:1031C00000277148C06900F0805070B900BF6E4898
:1031D000C06940F080506C49C8610846C06900F081
:1031E0008050009000BF00BF01276A48006800F4CB
:1031F0008070B0B96748006840F480706549086025
:10320000FFF7C8FC054606E0FFF7C4FC401B642836
:1032100001D90320BEE65F48006800F480700028F2
:10322000F2D000BFE068012806D15748006A40F09C
:1032300001005549086227E0E06858B95248006A21
:1032400020F00100504908620846006A20F004009E
:10325000086219E0E06805280BD14B48006A40F08D
:103260000400494908620846006A40F0010008620B
:103270000AE04548006A20F0010043490862084618
:10328000006A20F00400086200BFE068A0B1FFF708
:1032900081FC054609E0FFF77DFC401B41F28831C7
:1032A000884202D9032075E622E03748006A00F020
:1032B00002000028EFD012E0FFF76CFC054608E0A2
:1032C000FFF768FC401B41F28831884201D9032096
:1032D00060E62D48006A00F002000028F0D1012FBE
:1032E00005D12948C06920F080502749C86100BF36
:1032F000E069C8B32448406800F00C00082860D09A
:10330000E069022848D1002020490866FFF742FC06
:10331000054606E0FFF73EFC401B022801D90320CA
:1033200038E61948006800F000700028F2D1206AE1
:10333000B0F5803F07D11448406820F40030A16800
:10334000084311494860D4E9080108430E49496817
:1033500021F4741108430C49486001200B490866A8
:10336000FFF718FC054607E03DE0FFF713FC401BA4
:10337000022801D903200DE60348006800F0007020
:103380000028F2D02FE0000000100240000042426E
:103390008004424200700040002014490866FFF794
:1033A000F9FB054606E0FFF7F5FB401B022801D9B3
:1033B0000320EFE50E48006800F000700028F2D10D
:1033C00011E0E069012800D1E4E50948466806F407
:1033D0008031206A814204D106F47011606A814212
:1033E00001D00120D6E50020D4E5000000004242D3
:1033F0000010024070B504462546681EB0F1807F7B
:1034000001D301200FE0681E4FF0E02148610F2139
:103410004FF0FF3001F048FF00204FF0E0218861BD
:1034200007200861002070BD7047704710B5034643
:10343000002200BF93F83C00012801D1022010BDFA
:10344000012083F83C0000BF22F0FF00CC6840EA76
:10345000040222F440708C6840EA040222F4806086
:103460004C6840EA040222F400600C6840EA04025E
:1034700022F480500C6940EA040222F400504C69A6
:1034800040EA040222F48040CC6940EA0402186851
:10349000426400BF002083F83C0000BF00BFCEE7BD
:1034A00030B502460B4600BF92F83C00012801D11E
:1034B000022030BD012082F83C0000BF022082F8CB
:1034C0003D00106844681068816824F07004186832
:1034D000044310684460104D1068A8420BD0106877
:1034E000B0F1804F07D00D4D1068A84203D00C4DAD
:1034F0001068A84205D121F0800158680143106886
:103500008160012082F83D0000BF002082F83C006D
:1035100000BF00BFCDE70000002C014000040040C8
:103520000008004010B504460CB9012010BD94F805
:103530003D0028B9002084F83C00204600F026F821
:10354000022084F83D00211D206801F081FA01204D
:1035500084F8460000BF84F83E0001213F20015559
:10356000402001554120015500BF00BF012084F8D3
:10357000420043200155442001554520015500BF1C
:10358000012084F83D000020D0E7000038B5044653
:103590000D492068884215D100BF0C48C06940F031
:1035A00004000A49C8610846C06900F004000090A0
:1035B00000BF00BF002211461E20FFF771FB1E2036
:1035C000FFF75EFB38BD000000080040001002401D
:1035D000014691F83D00012801D0012070470220EA
:1035E00081F83D000868C06840F001000B68D860B1
:1035F000124B086898420BD00868B0F1804F07D092
:103600000F4B0868984203D00E4B086898420CD1C3
:103610000868806800F00702062A0CD00868006875
:1036200040F001000B68186005E00868006840F091
:1036300001000B6818600020D0E70000002C01405A
:1036400000040040000800402DE9F04104460D460A
:10365000002700BF94F83C00012802D10220BDE8F9
:10366000F081012084F83C0000BF022084F83D0076
:103670002068866826F0770626F47F4620688660F4
:103680002868502833D00CDC202850D004DC0028D7
:103690004BD0102851D149E0302849D040284CD196
:1036A00039E060282DD0702807D0B0F5805F03D0B6
:1036B000B0F5005F41D10DE041E0D5E902136A6841
:1036C000206801F018FA2068866846F077062068BE
:1036D000866034E0D5E902136A68206801F00BFACD
:1036E0002068806840F480402168886027E0EA68AC
:1036F0006968206801F0D0FA5021206801F006FACC
:103700001DE0EA686968206801F0D9FA6021206844
:1037100001F0FCF913E0EA686968206801F0BCFA7E
:103720004021206801F0F2F909E000BF00BF00BFAE
:103730002968206801F0EAF901E0012700BF00BF15
:10374000012084F83D0000BF002084F83C0000BF49
:10375000384684E72DE9F04104460D4614B90120AE
:10376000BDE8F08194F83D0028B9002084F83C00C1
:10377000204600F051F8022084F83D00206880685F
:1037800044F20701884321688860211D206801F008
:103790005FF92068D0F80880206886692068076A89
:1037A000286840EA080840F203308643A969A868FF
:1037B00040EA0120064340F60C4086434FF2F000F9
:1037C0008643E969E86840EA012006432869000168
:1037D000296A40EA0130064327F0220769696868D0
:1037E00040EA011007432068C0F80880206886611D
:1037F00020680762012084F8460084F83E00012119
:103800003F200155012084F842004320015501204A
:1038100084F83D000020A3E710B586B004460020E0
:1038200002900390049005902068B0F1804F24D15D
:1038300000BF2748C06940F001002549C86108461B
:10384000C06900F00100019000BF00BF00BF084642
:10385000806940F0040088610846806900F0040037
:10386000019000BF00BF032002900020039004904D
:1038700002A91848FEF7F8FF27E017492068884298
:1038800023D100BF1248C06940F002001049C8614E
:103890000846C06900F00200019000BF00BF00BFF1
:1038A0000846806940F0040088610846806900F09D
:1038B0000400019000BF00BFC020029000200390D0
:1038C000049002A90348FEF7CFFF06B010BD000028
:1038D0000010024000080140000400402DE9F043C0
:1038E00004460D4694F83E603F20075D94F8428000
:1038F000432010F804906DB9012E02D1B8F1010FE8
:1039000002D00120BDE8F083022084F83E0084F854
:10391000420025E0042D0CD1012F02D1B9F1010F95
:1039200001D00120EEE702213F200155432001553F
:1039300016E0012E07D1012F05D1B8F1010F02D1F8
:10394000B9F1010F01D00120DCE7022084F83E002C
:1039500002213F200155022084F8420043200155F6
:1039600015B1042D0CD105E001220021206801F0E1
:10397000B1F810E001220421206801F0ABF80AE060
:1039800001220021206801F0A5F80122042120680D
:1039900001F0A0F800BF00BF2068006840F00100FF
:1039A000216808600020ADE7704770B504462068C4
:1039B000C5682068066906F00200022819D105F0E2
:1039C0000200022815D1401F2168086101202077DC
:1039D0002068806900F0030018B12046FFF7E4FF7B
:1039E00005E0204600F0C4F8204600F08FF90020E2
:1039F000207706F00400042819D105F004000428FB
:103A000015D1C043216808610220207720688069B1
:103A100000F4407018B12046FFF7C6FF05E02046CD
:103A200000F0A6F8204600F071F90020207706F09B
:103A30000800082819D105F00800082815D1C0434E
:103A400021680861042020772068C06900F0030025
:103A500018B12046FFF7A8FF05E0204600F088F8DF
:103A6000204600F053F90020207706F010001028BF
:103A700019D105F01000102815D1C0432168086144
:103A8000082020772068C06900F4407018B12046F3
:103A9000FFF78AFF05E0204600F06AF8204600F0B4
:103AA00035F90020207706F0010048B105F001004B
:103AB00030B16FF0010021680861204600F092F9F2
:103AC00006F08000802809D105F08000802805D10B
:103AD000C043216808612046FFF7A6FC06F04000BD
:103AE000402809D105F04000402805D1C043216895
:103AF0000861204600F0F0F906F02000202809D1E6
:103B000005F02000202805D1C04321680861204627
:103B1000FFF78BFC70BD000010B586B00446002096
:103B200002900390049005900E492068884217D1B6
:103B300000BF0D48806940F004000B4988610846C9
:103B4000806900F00400019000BF00BF4FF4407096
:103B5000029002200390059002A90448FEF784FE1B
:103B600006B010BD002C01400010024000080140CA
:103B700070472DE9F04104460D461646002700BF68
:103B800094F83C00012802D10220BDE8F081012018
:103B900084F83C0000BF36B1042E1BD0082E31D073
:103BA0000C2E5ED145E02946206800F0B9FF206860
:103BB000806940F00800216888612068806920F0F1
:103BC00004002168886120688069296908432168A8
:103BD000886148E02946206800F0D2FF20688069AB
:103BE00040F40060216888612068806920F480606A
:103BF0002168886120688069296940EA012021687C
:103C0000886130E02946206800F0EEFF2068C06936
:103C100040F008002168C8612068C06920F00400F5
:103C20002168C8612068C069296908432168C861A2
:103C300019E02946206801F00BF82068C06940F4BB
:103C400000602168C8612068C06920F48060216834
:103C5000C8612068C069296940EA01202168C861FB
:103C600001E0012700BF00BF00BF002084F83C0036
:103C700000BF384689E710B504460CB9012010BDD5
:103C800094F83D0028B9002084F83C00204600F05C
:103C900025F8022084F83D00211D206800F0D8FEA0
:103CA000012084F8460000BF84F83E0001213F2037
:103CB0000155402001554120015500BF00BF0120A2
:103CC00084F8420043200155442001554520015508
:103CD00000BF012084F83D000020D0E708B5094A64
:103CE000016891420DD100BF0749896941F4006123
:103CF000054A91611146896901F40061009100BF94
:103D000000BF08BD002C01400010024070470000B9
:103D100070B504460D4615B994F83E000BE0042D2D
:103D200002D13F20005D06E0082D02D14020005D59
:103D300001E04120005D012801D0012070BD1DB9C6
:103D4000022084F83E000EE0042D03D102213F2022
:103D5000015508E0082D03D102214020015502E061
:103D600002214120015501222946206800F0B2FEBF
:103D700019492068884201D1012000E0002028B1C3
:103D80002068406C40F40040216848641249206873
:103D900088420BD02068B0F1804F07D00F492068CF
:103DA000884203D00E49206888420CD12068806880
:103DB00000F00706062E0CD02068006840F00100D5
:103DC0002168086005E02068006840F00100216873
:103DD00008600020B2E70000002C01400004004011
:103DE000000800402DE9F04104462E492068884231
:103DF00055D12D480068406A00B22C490880084619
:103E0000B0F900002A4948602848B0F9000001F0E4
:103E100057FF0746274901F075FE0646264901F07F
:103E200071FE0546254901F063FF254908602548D4
:103E300000681E49B1F900100844224908600020BA
:103E40001949096848621F4800681F4948601F48AF
:103E5000007810B11E48007808B9BDE8F0811A4812
:103E600000F0DBFC12490860084600F04EFD00B28D
:103E7000184908800846B0F90000002807DD084608
:103E8000008882B20121084601F0D8FB07E0114802
:103E90000088404282B20021012001F0CFFB00BF28
:103EA000DBE7000000080040E801002004000020DB
:103EB000400000200000A04000002F4500007A4490
:103EC0000C000020080000206C00002000000020F2
:103ED00001000020100000207047F8B504460D4690
:103EE000164694F8420020282DD105B10EB90120C4
:103EF000F8BD012020630020606332462946204639
:103F000001F018F90746206B012819D100BF0020E5
:103F1000009020680068009020684068009000BF12
:103F200000BF00BF00BF21680C3151E8001F41F005
:103F3000100021680C3141E80002002AF3D100E0B2
:103F400001273846D4E70220D2E70000044A904215
:103F500004D1044A11800122034B1A7070470000FB
:103F6000780200202C0000202E0000207047000066
:103F70002DE9F84F0446206805682068C668206867
:103F800047694FF00009CA4605F00F09B9F1000F63
:103F90000AD105F0200038B106F0200020B12046FB
:103FA00000F0CBFFBDE8F88FB9F1000F7BD007F030
:103FB000010018B906F49070002874D005F00100D3
:103FC00030B106F4807018B1606C40F0010060649C
:103FD00005F0040030B107F0010018B1606C40F04A
:103FE0000200606405F0020030B107F0010018B172
:103FF000606C40F00400606405F0080048B106F011
:10400000200010B907F0010018B1606C40F0080002
:104010006064606C002845D005F0200028B106F0EF
:10402000200010B1204600F088FF20684069C0F3EE
:10403000801A606C00F0080010B9BAF1000F2CD0A3
:10404000204600F021FF2068406900F0400000B3E6
:1040500000BF00BF2168143151E8001F21F040006B
:104060002168143141E80002002AF3D100BFE06B5F
:1040700050B17748E16B4863E06BFEF739FA88B1DD
:10408000E06B416B88470DE02046FFF76FFF09E0CA
:1040900009E02046FFF76AFF04E02046FFF766FFCD
:1040A000002060647EE7206B012877D105F01000C6
:1040B000002873D006F010000028FAD000BF0020BE
:1040C000009020680068009020684068009000BF61
:1040D00000BF2068406900F0400000285FD0E06B1E
:1040E000006840681FFA80F8B8F1000F55D0A08D25
:1040F000404552DDA4F82E80E06B8069202843D033
:1041000000BF00BF21680C3151E8001F21F480700E
:1041100021680C3141E80002002AF3D100BF00BF42
:1041200000BF2168143151E8001F21F0010021680F
:10413000143141E80002002AF3D100BF00BF00BFE4
:104140002168143151E8001F21F04000216814312A
:1041500041E80002002AF3D100BF202084F8420089
:104160000020206300BF00BF21680C3151E8001F10
:1041700021F0100021680C3141E80002002AF3D13F
:1041800000BFE06BFEF788F902206063A08DE28D2E
:10419000801A81B22046FFF7D9FE03E742E0A08DE6
:1041A000E18D401A1FFA80F8E08DD0B3B8F1000F0E
:1041B00037D000BF00BF21680C3151E8001F21F447
:1041C000907021680C3141E80002002AF3D100BF51
:1041D00000BF00BF2168143151E8001F21F0010029
:1041E0002168143141E80002002AF3D100BF2020E9
:1041F00084F842000020206300BF00BF21680C311A
:1042000051E8001F21F0100021680C3141E8000244
:10421000002AF3D100BF0220606341462046FFF729
:1042200095FEBFE605F0800030B106F0800018B1C1
:10423000204600F0E3FFB5E605F0400030B106F09F
:10424000400018B1204600F055FEABE600BFA9E6DD
:10425000E74C000810B504460CB9012010BDA06958
:1042600000B100E000BF94F8410028B9002084F8B4
:104270004000204600F02AF8242084F841002068FD
:10428000C06820F400502168C860204600F0D4FEC9
:104290002068006920F49040216808612068406926
:1042A00020F02A00216848612068C06840F400506E
:1042B0002168C86000206064202084F8410084F8F0
:1042C00042000020606300BFC8E7000010B586B060
:1042D0000446002002900390049005903B4920681A
:1042E000884271D100BF3A48806940F48040384923
:1042F00088610846806900F48040019000BF00BFDB
:1043000000BF0846806940F008008861084680695F
:1043100000F00800019000BF00BF40200290022082
:1043200003900320059002A92A48FEF79DFA8020F9
:10433000029000200390049002A92648FEF794FA08
:1043400000BF2549486840F0E06040F00400486044
:1043500000BF224822490860002048600021204810
:1043600081608021C1600021016141618161C16181
:10437000FEF7E4F908B1FEF78CF800BF1848E063D7
:10438000446200BF15481438164908601020486080
:104390000021144881608021C160002101614161D8
:1043A0008161C161FEF7CAF908B1FEF772F800BF7A
:1043B0000C48A063446200BF002211462520FEF78E
:1043C0006FFC2520FEF75CFC06B010BD00380140F4
:1043D00000100240000C0140000001405800024063
:1043E000C00200200403002070477047F7B5044660
:1043F000154694F84100202836D1019800B10DB936
:104400000120FEBD01982062A584E584002060643F
:10441000212084F841001548A16B88621448A16BE3
:10442000C8621448A16B08630020A16B486301AE09
:1044300023681A1D31682B46A06BFEF7B3F96FF0A5
:1044400040002168086000BF00BF2168143151E8B6
:10445000001F41F080002168143141E80002002A69
:10446000F3D100BF0020CCE70220CAE7234E0008AA
:104470007B4E0008FB4C00087047704700BFFEE70A
:1044800008B500BF0E48406940F001000C49486182
:104490000846406900F00100009000BF00BF002204
:1044A00011460E20FEF7FCFB0E20FEF7E9FB002272
:1044B00011460F20FEF7F4FB0F20FEF7E1FB08BDCD
:1044C0000010024000B585B00020019002900390DA
:1044D000049000BF2748806940F02000254988618A
:1044E0000846806900F02000009000BF00BF00BFB8
:1044F0000846806940F0040088610846806900F041
:104500000400009000BF00BF00BF0846806940F073
:10451000080088610846806900F00800009000BF2C
:1045200000BF00224FF400411348FEF72DFB00228C
:104530004FF480611148FEF727FB4FF400400190D3
:1045400001200290002003900220049001A90A4853
:10455000FEF78AF94FF4806001900120029000205C
:1045600003900220049001A90448FEF77DF905B0EC
:1045700000BD000000100240000C01400008014096
:1045800000B591B000200F9010901C2108A8FBF7F7
:1045900078FF20216846FBF774FF27482749086009
:1045A0000020486000212548816040F60F61C1600D
:1045B0000021016141618161FFF75DFB08B1FDF7F9
:1045C00068FF00200F9010900FA91C48FEF768FFAD
:1045D00008B1FDF75EFF60200890002009900A9066
:1045E0000B900C900D900E90002208A91348FFF735
:1045F000C0FA08B1FDF74DFF042208A90F48FFF7E4
:10460000B8FA08B1FDF745FF002000900190029034
:10461000039004904FF400500590002007906946E5
:104620000648FEF703FF08B1FDF733FF0348FFF725
:1046300073FA11B000BD0000002C014058010020A9
:1046400000B58BB0242102A8FBF71BFF00200090CF
:1046500001904FF080401749086000204860002119
:10466000144881604FF6FF71C160002101618161D2
:10467000012002900020039001200490002005906A
:104680000690079001200890002009900A9002A946
:104690000848FFF75FF808B1FDF7FBFE0020009027
:1046A000019069460348FEF7FBFE08B1FDF7F1FEF5
:1046B0000BB000BDA001002000B58BB0242102A8E2
:1046C000FBF7DFFE002000900190194819490860AF
:1046D000002048600021174881604FF6FF71C160DB
:1046E00000210161816101200290002003900120DE
:1046F0000490002005900A200690002007900120D9
:104700000890002009900A200A9002A90948FFF7A2
:1047100021F808B1FDF7BDFE002000900190694628
:104720000448FEF7BDFE08B1FDF7B3FE0BB000BDB7
:1047300000040040E801002000B587B0002003908D
:104740000490059006900190029015481549086064
:104750004720486000211348816041F28731C160E1
:104760000021016180218161FEF7DCFE08B1FDF7C7
:1047700090FE4FF48050039003A90A48FEF764FFAF
:1047800008B1FDF786FE00200190029001A90548BE
:10479000FEF786FE08B1FDF77CFE07B000BD000005
:1047A000000800403002002010B50B480B4908609B
:1047B0004FF4E1304860002108488160C160016128
:1047C0000C21416100218161C161FFF743FD08B106
:1047D000FDF75FFE10BD00000038014078020020A8
:1047E00000BFFEE700BFFEE7002008490860486000
:1047F0008860C860C8614862054908604860886090
:10480000C860C86148620349088070476C00002096
:10481000400000201000002070472DE9F0470446BA
:10482000D4E90001401AA060A06801F049FA81466D
:10483000216901F05DFA804601F026FA0746A16879
:10484000E0690844E061D4E90701884201DD206A9B
:10485000E061D4E907014942884202DA206A404215
:10486000E061E06901F02CFA8146616901F040FAEB
:10487000804601F009FA0646D4E90212881A01F0CE
:104880001FFA8146A16901F033FA804601F0FCF974
:104890000546A068E060B91948196062D4E90901C9
:1048A000884201DDA06A6062D4E909014942884278
:1048B00002DAA06A40426062606ABDE8F08770B5C3
:1048C000DDE904450161426183618462056200267D
:1048D000066046608660C660C661466270BD0000C4
:1048E00008B508490968C9084FF47A72B1FBF2F1BA
:1048F0004143009100BF00BF00994A1E0092002969
:10490000F9D108BD3C00002070472DE9F04704466E
:10491000D4E90001401AA060A06801F0D1F98146F5
:10492000216901F0E5F9804601F0AEF90746A1687A
:10493000E0690844E061D4E90701884201DD206AAA
:10494000E061D4E907014942884202DA206A404224
:10495000E061E06901F0B4F98146616901F0C8F9EC
:10496000804601F091F90646D4E90212881A01F056
:10497000A7F98146A16901F0BBF9804601F084F9ED
:104980000546A068E060B91948196062D4E90901D8
:10499000884201DDA06A6062D4E909014942884287
:1049A00002DAA06A40426062606ABDE8F08770B5D2
:1049B000DDE904450161426183618462056200268C
:1049C000066046608660C660C661466270BD10B50E
:1049D000FEF7E6F810BD00B58FB0282105A8FBF75B
:1049E00050FD14216846FBF74CFD012005900004A2
:1049F0000690002007900120099002200C90C1032E
:104A00000D914FF4E0110E9105A8FEF7BFFA08B121
:104A1000FDF73FFD0F200090022001900020029042
:104A20004FF4806003900020049002216846FEF756
:104A300089F908B1FDF72DFD0FB000BD70470000EA
:104A400010B50248FEF7B1FF10BD00003002002093
:104A500010B502681C4B984208D0B0F1804F05D0C9
:104A60001A4B984202D01A4B984203D122F070029E
:104A70004B681A43144B984208D0B0F1804F05D0D0
:104A8000124B984202D0124B984203D122F440724A
:104A9000CB681A4322F080034C6943EA04020260A7
:104AA0008B68C3620B688362074B984201D10B6924
:104AB000036301234361036903F001031BB103692D
:104AC00023F00103036110BD002C014000040040ED
:104AD0000008004030B501F01F05012404FA05F379
:104AE000046A9C430462046A01F01F0502FA05F59A
:104AF0002C43046230BD30B50C46816821F47F41FF
:104B000042EA032525432943816030BD0A46816876
:104B100021F0700142F007031943816070470000E3
:104B200030B5026A056A25F00105056243688469AB
:104B300024F0700424F003040D682C4322F00202D8
:104B40008D682A430D4DA84206D100BF22F008020D
:104B5000CD682A4322F00402084DA84207D123F46D
:104B6000807323F400734D692B438D692B4343609D
:104B700084614D684563026230BD0000002C014035
:104B800030B5026A056A25F010050562436884693C
:104B900024F4E04424F440740D6844EA052422F02F
:104BA00020028D6842EA05120E4DA84207D100BFCF
:104BB00022F08002CD6842EA051222F04002094D3F
:104BC000A84209D123F4806323F400634D6943EACA
:104BD00085038D6943EA8503436084614D6885637D
:104BE000026230BD002C014030B5026A056A25F42E
:104BF000807505624368C46924F0700424F00304DE
:104C00000D682C4322F400728D6842EA05220F4D94
:104C1000A84207D100BF22F40062CD6842EA052213
:104C200022F48062094DA84209D123F4805323F471
:104C300000534D6943EA05138D6943EA0513436048
:104C4000C4614D68C563026230BD0000002C0140A4
:104C500030B5036A056A25F4805505624468C26967
:104C600022F4E04222F440720D6842EA052223F465
:104C700000538D6843EA0533064DA84204D124F45D
:104C800080444D6944EA85144460C2614D680564FE
:104C9000036230BD002C014030B50B461446026A59
:104CA000056A25F001050562816921F0F00141EAFC
:104CB000041122F00A021A438161026230BD30B54C
:104CC0000B461446026A056A25F0100505628169E3
:104CD00021F4704141EA043122F0A00242EA0312B9
:104CE0008161026230BD70B505466C6A0020E085C6
:104CF000E0842046FFF73AF970BD70B506460025FE
:104D0000746A20684069C0F3C01594F841002128F6
:104D100005D125B10020E084204600F0FBF8206892
:104D20004069C0F3801594F84200222805D125B1CE
:104D30000020E085204600F0A7F8606C40F01000ED
:104D400060642046FFF712F970BD70B505466C6AC5
:104D50002868006800F02000002842D1E08500BFEC
:104D600000BF21680C3151E8001F21F480702168D8
:104D70000C3141E80002002AF3D100BF00BF00BFA0
:104D80002168143151E8001F21F00100216814311D
:104D900041E80002002AF3D100BF00BF00BF216834
:104DA000143151E8001F21F040002168143141E81E
:104DB0000002002AF3D100BF202084F84200206BBB
:104DC00001280ED100BF00BF21680C3151E8001F3F
:104DD00021F0100021680C3141E80002002AF3D1D3
:104DE00000BF00206063206B012804D1A18D204604
:104DF000FFF7ACF802E02046FFF7F6FA70BD70B599
:104E000005466C6A01206063206B012805D1A08DE6
:104E100041082046FFF79AF802E02046FFF7E5FA3E
:104E200070BD70B505466C6A2868006800F0200007
:104E3000F8B90020E08400BF00BF2168143151E8B8
:104E4000001F21F080002168143141E80002002A8F
:104E5000F3D100BF00BF00BF21680C3151E8001F33
:104E600041F0400021680C3141E80002002AF3D1F2
:104E700002E02046FFF700FB70BD70B50446656A8E
:104E80002846FFF7FAFA70BD00BF00BF02680C3277
:104E900052E8002F22F4907102680C3242E80013AD
:104EA000002BF3D100BF00BF00BF0268143252E8EC
:104EB000002F22F001010268143242E80013002B97
:104EC000F3D100BF016B01290ED100BF00BF026802
:104ED0000C3252E8002F22F0100102680C3242E836
:104EE0000013002BF3D100BF202180F842100021D5
:104EF0000163704710B504462068C06820F0400088
:104F00002168C860202084F841002046FFF7B4FAE9
:104F1000002010BD00BF00BF02680C3252E8002F15
:104F200022F0C00102680C3242E80013002BF3D1DA
:104F300000BF202180F841107047F8B5044694F86E
:104F40004200222875D1A068B0F5805F0CD120699D
:104F500050B90025A66A20684068C0F30800308078
:104F6000A06A801CA06215E0A56A0026A068B0F5C2
:104F7000805F03D0A06828B9206918B9206840680C
:104F8000287004E02068406800F07F002870A06A64
:104F9000401CA062E08D401E80B2E085002846D112
:104FA0002068C06820F020002168C8602068C068C0
:104FB00020F480702168C8602068406920F00100FA
:104FC00021684861202084F8420000206063206B43
:104FD000012826D10020206300BF00BF21680C31CA
:104FE00051E8001F21F0100021680C3141E8000257
:104FF000002AF3D100BF2068006800F010001028DC
:105000000AD100BF0020009020680068009020684E
:105010004068009000BF00BFA18D2046FEF796FFBC
:1050200002E02046FFF7E0F90020F8BD01E0002093
:10503000FBE70220F9E7000070B504462168096922
:1050400021F44051E2681143226811612269A1688C
:105050001143626941EA02052168C96841F20C62A4
:10506000914329432268D1602168496921F4407144
:10507000A2691143226851612D4A2168914202D1EF
:10508000FDF73CFF01E0FDF729FF00EBC00101EB5C
:10509000001162689200B1FBF2F100EBC00202EB7A
:1050A000001263689B00B2FBF3F26423B2FBF3F2DD
:1050B00002EBC20303EB0212A1EB8201322202EBEC
:1050C00001116422B1FBF2F101F0F00100EBC0022A
:1050D00002EB001263689B00B2FBF3F26423B2FBA5
:1050E000F3F201EB021200EBC00101EB0011636867
:1050F0009B00B1FBF3F100EBC00303EB0013666808
:10510000B600B3FBF6F36426B3FBF6F303EBC3067A
:1051100006EB0313A1EB8301322303EB011164239C
:10512000B1FBF3F101F00F0111442268916070BDF1
:105130000038014077B581B0044615460298A06258
:10514000A58500206064222084F842002848E16B95
:1051500088622848E16BC8622748E16B0863002039
:10516000E16B486302AE32682368191D2B46E06B81
:10517000FDF718FB00BF0020009020680068009039
:1051800020684068009000BF00BF206970B100BF78
:1051900000BF21680C3151E8001F41F48070216884
:1051A0000C3141E80002002AF3D100BF00BF00BF6C
:1051B0002168143151E8001F41F0010021681431C9
:1051C00041E80002002AF3D100BF00BF00BF216800
:1051D000143151E8001F41F040002168143141E8CA
:1051E0000002002AF3D100BF002004B070BD00000F
:1051F0004B4D0008FF4D0008FB4C0008014691F89C
:105200004100212828D18868B0F5805F0BD108695A
:1052100048B90A6A1088C0F308000B685860086A29
:10522000801C086205E00B6A581C086218780B683D
:105230005860C88C401E80B2C88458B90868C068DD
:1052400020F080000B68D8600868C06840F040001B
:105250000B68D860002070470220FCE710B50248B8
:10526000FEF786FE10BD00007802002000BFFEE7BA
:10527000490050EAC12018BF04204A0D18BF40F071
:10528000010040F2FF72B2EB515F08BF40F0020034
:10529000012808BF0520704702480068C0F30220BB
:1052A000704700000CED00E010B5002804DB0A0791
:1052B000130E054A135406E00A07140E034A00F0C1
:1052C0000F031B1FD45410BD00E400E018ED00E0F4
:1052D00040F2013200204FF0E04100F00CBE00002F
:1052E000024A0020110700F006BE000001FDFFFF8A
:1052F00010B50446D1E9000100F002F8206010BDAD
:10530000F8B504460D466A4600F06AF800987E300B
:10531000009000281EDC002213462046294600F09B
:10532000C3FA17D0002140F608004FF000000646EF
:105330002046294600F072FA044640F6080006EAC4
:1053400000014FF0000034F0004004BF0220FCF7E1
:10535000F4F829E00098FF2828DB002108464FF0E8
:10536000000000F44006002213462046294600F0C3
:1053700067FB8CBF002501250220FCF7DEF84FF00B
:10538000FF4446B1002D0CBF4FF400004FF48000E5
:10539000B04218BF084C042108464FF00000002D11
:1053A00004BF84F00040F8BD2046F8BD20462946E1
:1053B000BDE8F84000F032BAFFFF7F7F10B5044629
:1053C0000A46D4E90003194600F036F8C4E90001A2
:1053D00010BD30380A2801D20120704700207047E4
:1053E00010B5144600222260114A21F00043934276
:1053F000A8BF10BD53EA000208BF10BDB3F5801F5F
:10540000A8BF226807DA362200F075FD6FF035027A
:1054100021F000432260DFF81CC06FF31E510CEB3B
:1054200023531A4441F0FF5141F00051226010BD56
:105430000000F07F02FCFFFF2DE9F04106460C461C
:1054400040F2FF75174635EA14502BD00022134660
:10545000304600F029FA25D03A463046214600F081
:105460004AFD06460C4635EA145010D00022134679
:10547000304600F019FA15D10220FCF75EF8FFF76C
:105480002FFF0A46214662F31E01BDE8F08102208B
:10549000FCF753F8FFF71CFF0A46214662F31E0192
:1054A000BDE8F08130462146BDE8F08186B0FDF7C9
:1054B00083FBFFF790FAFFF705F8FEF7E1FFFFF730
:1054C0005FF8FFF7BDF8FFF7F7F8FFF735F9FFF7DB
:1054D0006BF9012000F0D0F84048FEF779F83C2144
:1054E0003F48FEF7FBF940F6C41040F60F61002379
:1054F0003C4ACDE900103C493C48FFF758FA0020EF
:10550000822103460246CDE9001039493948FFF7A8
:10551000D6F94FF4AF603749086040223649374822
:10552000FEF7DBFC3548C06B0068006820F0040023
:105530003249C96B096808604EE0FDF72BFB304922
:105540000968401A14283AD3FDF724FB2C49086057
:105550002A4890F84100202831D12649486800F0B7
:10556000AFFB0546274900F0CDFA0446264900F076
:10557000BFFB264908602648006800F097FA0446F9
:105580000D462248006800F091FA06460F46214871
:10559000006800F08BFA8DE8C300CDE9044513489C
:1055A00003681DA142682348FAF724FE2148FAF750
:1055B00017FF84B222461F491048FEF717FFFDF778
:1055C000E9FA1D490968401A0F2805D3FDF7E2FAE8
:1055D00019490860FCF7B2FEAFE700003002002076
:1055E000E80100209A99993F0000204140000020E6
:1055F0000AD7A33D6C000020D800002078020020CC
:105600001400002000002F450000B4431C000020BF
:10561000200000200C0000207069643A25642C25CD
:10562000642C252E32662C252E32662C252E3266D1
:105630000A000000980000201800002070B50646FF
:105640000C461546012E11D1012C05D101228102F3
:105650000748FDF799FA05E000224FF480610448FD
:10566000FDF792FA03480068856300E000BF70BD53
:1056700000080140580100202DE9F047044624B9F4
:1056800000214948FEF744FB05E0012C03D1042129
:105690004548FEF73DFB0020444908704449087026
:1056A000002201212046FFF7C9FFFFF79DF80020E7
:1056B00040490870404909684862404908804049AB
:1056C00008606420FDF7BCF84FF4FA72012120460F
:1056D000FFF7B4FFFDF75EFA0746FDF75BFA0546F4
:1056E0003748D0F80080002631E0FDF753FAC01BA0
:1056F00042F2107188420DD9002201212046FFF7A5
:105700009DFF00202B49087028490870284908701F
:10571000BDE8F087FDF73EFA401BB0F5FA7F16D3DF
:10572000FDF738FA05462648D0F80090A9EB080A9C
:10573000C846BAF1000F05DBBAF1020F02DA701C9D
:10574000C6B200E000260A2E00DB01E000BFCCE775
:1057500000BF002201212046FFF770FF6420FDF703
:105760006FF8FA2200212046FFF768FFC820FDF7F6
:1057700067F8002211462046FFF760FFC820FDF7BA
:105780005FF800200C49096848620C4908800C4900
:105790000860FFF729F801200649087003490870DE
:1057A0000349087000BFB3E7580100200000002043
:1057B0000100002002000020E80100200400002079
:1057C0000800002010B500290AD00878002807D06A
:1057D00005487844FCF7ECF8002801D0002010BD03
:1057E0000248784410BD0000AA080000A20800008A
:1057F00010B500290AD00878002807D00548784459
:10580000FCF7D6F8002801D0002010BD02487844EB
:1058100010BD00009A0800009208000021F000422C
:10582000A2F16052B2F5801F01F0004328BFD2F10F
:105830007F6C0BD95FEA001C43EAC20242EB507056
:1058400018BF704728BF20F001007047B2F5801FD5
:10585000BCBF184670474FEA410C1CF5001F02D22E
:10586000084600F00CBB70B500F096F80000008907
:10587000FFF7F6BF4FF00040A0F580007047000032
:1058800002494FF0000000F004BB00BF0000F87FA9
:10589000491058BFC1F140415B1058BFC3F14043AC
:1058A0008B42EFF30080704751EA030C17D41CF5CC
:1058B000801F58BFBCF5801F00F10680994218BFB9
:1058C000704708BF9042704707D711F5801F58BF37
:1058D00013F5801F19D499427047894270471CF50F
:1058E000801F08D5BCF5801FF7D58B4218BF7047C5
:1058F00008BF824270474FF4001C1CEB410F38BFB9
:105900001CEB430F01D28B42704770B500F044F896
:10591000922449004FF000514FF08053FFF7B8BF79
:1059200051EA030C17D41CF5801F58BFBCF5801F2B
:1059300000F10680994218BF704708BF9042704737
:1059400007D711F5801F58BF13F5801F19D499424E
:105950007047894270471CF5801F08D5BCF5801F31
:10596000F7D58B4218BF704708BF824270474FF48B
:10597000001C1CEB410F38BF1CEB430F01D28B42C4
:10598000704770B500F008F8922449004FF00051BC
:105990004FF08053FFF77CBF0EF1020E2EF0030E86
:1059A0005EF8046B364205D4012A43EB030515F576
:1059B000001F12D8012841EB010C1CF5001F0CD868
:1059C0000ED14FEAD17C15F5001F0CEB4C0C0CF1FD
:1059D000020C08BF4CEBD37C04E04FF0080C01E054
:1059E0004FEAD37C0CEB4C0526FA05F606F00706C9
:1059F000B6F1040C06D20EEB860CBDE870404CF0FC
:105A0000010C6047DFE80CF0090B02024FF0004187
:105A10004FF00000A1F5002170BD19461046012885
:105A200051EB010418BFD4F5001484BF002001F02D
:105A3000004170BD0808A0F500114FEA3101704720
:105A400053EA010C17D41CF5801F58BFBCF5801F0A
:105A500000F106808B4218BF704708BF8242704732
:105A600007D713F5801F58BF11F5801F19D48B423B
:105A700070479B4270471CF5801F08D5BCF5801FFE
:105A8000F7D5994218BF704708BF904270474FF44E
:105A9000001C1CEB430F38BF1CEB410F01D2994295
:105AA00070470FB40CBC03BCFFF76BBF43004FEA59
:105AB000D30C4FEA3C0C43401FBF40070CF1605130
:105AC00013F0FE4F70471CF0006F03D100200CF064
:105AD000004170470CF0004343EA507010B540EAB3
